:020000002E29A7
:0400060000000800EE
:10000A00053084000008000883120313F000F01082
:06001A00700880000800E0
:10002000053084000008000883120313F0007010EC
:06003000700880000800CA
:100036000520831685100320032005148312201043
:1000460005182928201C28282928232803200320CE
:100056000320032003200320032003208316851496
:0600660003200320080046
:10006C008316031385140320032005140320032097
:10007C0005208316851003200320102083160510FD
:02008C0008006A
:10008E0083120313A901AA018030AB000030AC002B
:10009E002B082C04031972280320032083168514C1
:1000AE000320032005148312201005186228201C3B
:1000BE00612862285C28851C68282B08A9042C0856
:1000CE00AA04032003201020831605108312AC0C03
:1000DE00AB0CAC134F288316851403200320831218
:1000EE002708280403197E280520831685108316F9
:1000FE000320032005148312201005188A28201CC3
:10010E0089288A28842803200320102083160510AE
:10011E000320032005208316851083122908F00082
:02012E000800C7
:10013000013083120313AA000030AB008030A80006
:10014000A901280829040319CE280320032003202D
:100150000320102083160510032003208312280893
:100160002705F00000302905F1007008710403191B
:10017000BC2883168514BF2805208316851003200C
:1001800003200514831220100518CA28201CC92832
:10019000CA28C428A90CA80CA913A128AA01AB013C
:1001A000032003201020831605100320032085144C
:1001B00003200320032003200514831220100518B8
:1001C000E528201CE428E528DF28AA01AB0103204C
:1001D0000320851CEC282A1403200320032003207D
:1001E00003200320032003200320032003200320F7
:1001F0000320032003200320102083160510052070
:0C0200008316851083122A08F000080005
:10020C003620FE3083122505A70098202608A7006B
:06021C0098201B200800E1
:100222003620013083122504A7009820A701A801D7
:1002320047207008A6001B2083122608F000080041
:1002420083160313051485148312201005182D2913
:0A025200201C2C292D292729080063
:10025C0083120313A401063083169F0007309C0001
:10026C00212183124E30A50011217008A300231800
:10027C0041292412422924167030A5002408A60016
:10028C0006218230FC00DD30FD00FD0B4B29FC0B00
:0A029C004B29000000003729522909
:02400E004A2F37
:00000001FF
