:02000000AB2C27
:0400060000000800EE
:10000A00103083120313FD00FD0B092800000800BD
:10001A00083083120313FC002330FD00FD0B132864
:06002A00FC0B1328080086
:0E003000073083120313FD00FD0B1C2808008F
:10003E0083120313F801F9011030FC00710DF80D55
:10004E00F90D7408F8027508031C750FF9020318F0
:10005E0037287408F80775080318750FF907031089
:0A006E00F00DF10DFC0B2528080031
:1000780083120313D31B4228861243288616531B68
:100088004728061248280616D31A4C2886114D28E8
:100098008615531A51280611522806152518562870
:1000A800061457280610861403208610D3195E28D4
:1000B80086125F28861653196328061264280616C6
:1000C800D318682886116928861553186D280611D3
:1000D8006E2806152518722806147328061086142B
:1000E80003208610251C7A280D207B28052008006F
:1000F8007408F8027508031C750FF9027608031CCA
:10010800760FFA027708031C770FFB02F30D07300E
:10011800FC00730DF80DF90DFA0DFB0D7408731C36
:10012800A328F8027508031C750FF9027608031C4A
:10013800760FFA027708031C770FFB02B028F8073E
:1001480075080318750FF90776080318760FFA076C
:1001580077080318770FFB07F30DFC0B8D28720D3A
:10016800F80DF90DFA0DFB0D7408731CC928F80277
:100178007508031C750FF9027608031C760FFA023E
:100188007708031C770FFB02D628F80775080318B1
:10019800750FF90776080318760FFA07770803181A
:1001A800770FFB07F20D0730FC00720DF80DF90D03
:1001B800FA0DFB0D7408721CEF28F8027508031C71
:1001C800750FF9027608031C760FFA027708031CEC
:1001D800770FFB02FC28F80775080318750FF90755
:1001E80076080318760FFA0777080318770FFB07C6
:1001F800F20DFC0BD928710DF80DF90DFA0DFB0D58
:100208007408721C1529F8027508031C750FF90289
:100218007608031C760FFA027708031C770FFB0297
:100228002229F80775080318750FF90776080318C7
:10023800760FFA0777080318770FFB07F10D0730D9
:10024800FC00710DF80DF90DFA0DFB0D7408711C09
:100258003B29F8027508031C750FF9027608031C80
:10026800760FFA027708031C770FFB024829F80774
:1002780075080318750FF90776080318760FFA073B
:1002880077080318770FFB07F10DFC0B2529700D74
:10029800F80DF90DFA0DFB0D7408711C6129F802AF
:1002A8007508031C750FF9027608031C760FFA020D
:1002B8007708031C770FFB026E29F80775080318E7
:1002C800750FF90776080318760FFA0777080318E9
:1002D800770FFB07F00D0730FC00700DF80DF90DD6
:1002E800FA0DFB0D7408701C8729F8027508031CA9
:1002F800750FF9027608031C760FFA027708031CBB
:10030800770FFB029429F80775080318750FF9078A
:1003180076080318760FFA0777080318770FFB0794
:10032800F00DFC0B71297018A7297408F8077508D7
:100338000318750FF90776080318760FFA07770878
:080348000318770FFB07080002
:10035000FB09FA09F909F809F80A0319F90A031956
:08036000FA0A0319FB0A080068
:10036800C730831203139F052108F000F00D7010A9
:10037800F00D7010F00D701070089F0418201F15F4
:100388001F1DC8290000C4291E08F100F0018316AA
:0A0398001E08F0040030F104080014
:1003A2008312031325104E08D3003C2025140800A5
:0E03B2008312031324088A0023088200080027
:1003C000831203132230FC00F801F901FA01FB014A
:1003D000FC030319162A0310FB0CFA0CF90CF80C99
:1003E000F30CF20CF10CF00C031CE829FC030319CC
:1003F000082A7408F80775080318750FF9077608B6
:100400000318760FFA0777080318770FFB07EC2914
:100410007408F80775080318750FF90776080318AC
:0E042000760FFA0777080318770FFB0708001E
:10042E00831203137408003A031D322A7508003A2A
:10043E00031D322A7608003A031D322A7708003A45
:10044E00031D322AFF30F000FF30F100FF30F200C2
:10045E007F30F300CB2A83120313FC01F71BFC0A37
:10046E00FD01FB01FA01F901F80173087204710430
:10047E0070040319C62A73087706A000A01BFD0995
:10048E00F71F542AF409F509F609F709F40A0319B6
:10049E00F50A0319F60A0319F70AF31F612AF00980
:1004AE00F109F209F309F00A0319F10A0319F20A24
:1004BE000319F30A73087704A000A01B822A7C207C
:1004CE00FC1B9F2AFD1FC62AF009F109F209F30948
:1004DE00F00A0319F10A0319F20A0319F30AF809CB
:1004EE00F909FA09FB09F80A0319F90A0319FA0AB4
:1004FE000319FB0AC62AF71F992AF31B932A7308BE
:10050E00FB007208FA007108F9007008F800F30198
:10051E00F201F101F001692AF301F201F101F0019A
:10052E00F00A0034F309F209F109F009FC17662A02
:10053E00F80A0319F90A0319FA0A0319FB0A7408CF
:10054E007802031D692A75087902031D692A760847
:10055E007A02031D692A77087B02031D692AFB01B3
:10056E00FA01F901F801F00A0319F10A0319F20A66
:10057E000319F30AF31F692AA0012016FF34A00104
:0A058E007C1CCA2AA821003E0800C8
:1005980083120313D101053051020318DA2A5108D6
:1005A8005007840020308000D10ACF2A5108500714
:1005B80084008001D10351085007D2000A30F400AA
:1005C800F5014E08F0004F08F1001F207808F000F0
:1005D8007908F1003030F007520884007008800074
:1005E8000A30F400F5014E08F0004F08F1001F2012
:1005F8007008CE007108CF0000307106031D062B6D
:1006080000307006031D092B0B2BD103DF2A0800CD
:1006180083120313C5014508440784000008031921
:100628001D2B4508440784000008CE00D121C50AC7
:040638000F2B08007C
:10063C0083120313C901CA014408CB004508CC003E
:10064C0080304506F00080307002031D2F2B0030E7
:10065C00440203183D2B0130C9000030CA00440885
:10066C00003CCB004508031C013ECC01CC024B08DE
:10067C00CE004C08CF004608D000CC220630C70074
:10068C000030C8004808003C031D4E2B4708003CB6
:10069C000318692B47084607F20001304702F000A7
:1006AC000030031C013E4802F1007008460784002C
:1006BC000008F00072088400700880000130C70246
:1006CC00031CC803482B46088400203080004908CE
:1006DC004A040319872BC701C80147084607840041
:1006EC000008203A031D7E2BC70A0319C80A732B76
:1006FC000130C702031CC8034708460784002D308D
:04070C008000080061
:10071000831203134408A100B42170088312C5009A
:100720007108C600C701C8014508F0004608F1007D
:100730004708F2004808F300F430F4000130F500F7
:100740000030F6000030F700E0210A30F8007008B1
:10075000F4007108F5007208F6007308F7007808D5
:100760000319B92BF70CF60CF50CF40CF713FF3E3C
:0C077000B02B7408F0007508F1000800C0
:10077C00D9218A110A128000840AA30A0319A40A37
:08078C00F003031DBE2B080061
:10079400831603138610061006118611061286129C
:1007A40083128610061086120612861106110D2079
:1007B4000D200D20861506158614032086100D20A5
:1007C4008614032086100D208614032086100D2025
:1007D40006118614032086100D208614032086102B
:1007E400861186168614032086100D20861206159F
:1007F40086140320861006118614032086100D200B
:1008040086140320861006158614032086100D20F6
:1008140006118614032086108616061686150615FC
:0C0824008614032086100D202514080007
:10083000B43083120313A6000130A7002130A800B2
:1008400000309F01C0309F042209F0007008831619
:0C0850009F051F179F1783121F1408003C
:10085C00831203134408A100B42170088312C6004C
:10086C007108C700C801C9014508A100B42170086E
:10087C008312CA007108CB00CC01CD014608F000F0
:10088C004708F1004808F2004908F3004A08F00252
:10089C004B08031C4B0FF1024C08031C4C0FF202CB
:1008AC004D08031C4D0FF302F430F4000130F50039
:1008BC000030F6000030F700E0210030F400043086
:0A08CC00F500F601F70117220800FD
:1008D6007D2C803083120313C400902CC030C400DA
:1008E600902C9430C400902CD430C400902C8030CE
:1008F600C400902C831203134408013A03196C2C8C
:100906004408023A0319712C4408033A0319742C5B
:100916004408043A0319772C7A2C4503F00044085E
:10092600F0077008C4007008D3003C202510C701EA
:1009360047084607840000080319A92C47084607FC
:1009460084000008CE00D121C70A9B2C251408007C
:100956002A250730831603139C001824CA23013066
:10096600D3003C200C30D3003C200130C4000130C1
:10097600C5005330B0006530B1006E30B200733040
:10098600B3006F30B4007230B5002030B60030309E
:10099600B7003A30B800B9013030C6006B24C40144
:1009A6000130C5002E247008C4007108C500293026
:1009B600C6001E232B30C4000C23DF30CE00D1210D
:1009C6004330CE00D1210230C4000130C50053307F
:1009D600BA006530BB006E30BC007330BD006F30AE
:1009E600BE007230BF002030C0003130C1003A3046
:1009F600C200C3013A30C6006B240230C40088230B
:100A06007008C4007108C5002930C6001E232B30AB
:100A1600C4000C23DF30CE00D1214330CE00D121DB
:100A26000630FB001330FC00AD30FD00FD0B192D28
:100A3600FC0B192DFB0B192D00000000B82C222DE4
:100A540022308400013083120313F0002830A300F5
:080A64000530A400BE230800C8
:020A50000F3461
:02400E004A2F37
:00000001FF
