:02000000292CA9
:10000600083083120313FC002330FD00FD0B092882
:06001600FC0B09280800A4
:10001C00103083120313FD00FD0B122800000800A2
:04002C0000000800C8
:10003000073084000008000883120313F000F01357
:06004000700880000800BA
:10004600073084000008000883120313F0007013C1
:06005600700880000800A4
:10005C0083120313F801F9011030FC00710DF80D37
:10006C00F90D7408F8027508031C750FF9020318D2
:10007C0046287408F80775080318750FF90703105C
:0A008C00F00DF10DFC0B3428080004
:100096008316031387171620162007171620162017
:1000A600182083168713162016202320831607137D
:0200B600080040
:1000B800013083120313CE000030CF008030CC0013
:1000C800CD014C084D04031992281620162016203D
:1000D80016202320831607131620162083124C0897
:1000E8004B05F00000304D05F1007008710403194C
:1000F80080288316871783281820831687131620CD
:10010800162007178312A210071B8E28A21C8D2801
:100118008E288828CD0CCC0CCD136528CE01CF01B4
:10012800162016202320831607131620162087175B
:10013800162016201620162007178312A210071B58
:10014800A928A21CA828A928A328CE01CF011620D7
:100158001620871FB0284E141620162016201620A9
:1001680016201620162016201620162016201620D7
:100178001620162016201620232083160713182071
:0C0188008316871383124E08F000080055
:1001940083120313CD01CE018030CF000030D00094
:1001A4004F0850040319F5281620162083168717C4
:1001B4001620162007178312A210071BE528A21C7D
:1001C400E428E528DF28871FEB284F08CD045008D2
:1001D400CE04162016202320831607138312D00C76
:1001E400CF0CD013D228831687171620162083121B
:1001F4004B084C040319012918208316871383160E
:100204001620162007178312A210071B0D29A21C03
:100214000C290D29072916201620232083160713DD
:100224001620162018208316871383124D08F00019
:020234000800C0
:1002360083120313CB1B21298712222987164B1BF6
:100246002629071227290716CB1A2B2987112C29AD
:1002560087154B1A30290711312907152218352918
:10026600071436290710871416208710CB193D2945
:1002760087123E2987164B1942290712432907166A
:10028600CB1847298711482987154B184C29071180
:100296004D290715221851290714522907108714CA
:1002A60016208710221C592903205A290E200800DF
:1002B6001820831687131620162007178312A210FC
:1002C600071B6929A21C682969296329162016209B
:1002D600162016201620162016201620831687179D
:0602E6001620162008009E
:1002EC008312031322104608CB001B212214080092
:1002FC004B2083124608F000F00D70109030700403
:10030C00CB005C204708CB005C204908CB005C206C
:0A031C004808CB005C205B210800BC
:1003260083120313C901053049020318A12949089C
:100336004807840020308000C90A962949084807E2
:1003460084008001C90349084807CA000A30F4003E
:10035600F5014608F0004708F1002E207808F00065
:100366007908F1003030F0074A08840070088000F0
:100376000A30F400F5014608F0004708F1002E2087
:100386007008C6007108C70000307106031DCD292C
:1003960000307006031DD029D229C903A6290800FA
:0E03A6008312031321088A0020088200080039
:1003B4004B2083124608F000F00D7010903070044A
:1003C400CB005C204708CB005C204B2083124608FE
:1003D400F000F00D701090307004CB004B145C20D2
:1003E4000130CB000030CC00CA207008C900CB011A
:1003F400CC01CA207008C8005B2183124808F000B1
:060404004908F1000800A8
:10040A00831203137008BE003D08C600AA30C70055
:10041A00DA217008BF007108C0000230F3003E08FC
:10042A00F2003F30F100710884000008F000720801
:10043A00840070088000F20AF10AF303031D182AE7
:02044A000800A8
:10044C00382A803083120313BD004B2AC030BD0004
:10045C004B2A9430BD004B2AD430BD004B2A80303F
:10046C00BD004B2A831203133D08013A0319272AB6
:10047C003D08023A03192C2A3D08033A03192F2A86
:10048C003D08043A0319322A352A3E03F0003D0890
:10049C00F0077008BD007008CB001B212210C001B2
:1004AC0040083F07840000080319642A40083F07EE
:1004BC0084000008C6007621C00A562A22140800BF
:1004CC0083120313FB01FA01F9018030F800F10CDF
:1004DC00F00C031C7A2A7408F90775080318750FB9
:1004EC00FA070318FB0A0310F01F822A7408FA0794
:1004FC0075080318750FFB07FB0CFA0CF90CF80CBC
:10050C00031C6D2A7B08F3007A08F2007908F100CD
:06051C007808F000080061
:1005220083120313C201C3013D08C4003E08C50083
:1005320080303E06F00080307002031DA22A003097
:100542003D020318B02A0130C2000030C3003D084A
:10055200003CC4003E08031C013EC501C50244081C
:10056200C6004508C7003F08C80093210630C000F6
:100572000030C1004108003C031DC12A4008003C74
:100582000318DC2A40083F07F20001304002F00065
:100592000030031C013E4102F10070083F07840055
:1005A2000008F00072088400700880000130C00268
:1005B200031CC103BB2A3F0884002030800042088C
:1005C20043040319FA2AC001C10140083F0784000D
:1005D2000008203A031DF12AC00A0319C10AE62ABB
:1005E2000130C002031CC10340083F0784002D30C4
:0405F200800008007D
:1005F60083120313BE013E083D0784000008031959
:100606000C2B3E083D0784000008C6007621BE0A72
:04061600FE2A0800B0
:10061A004B2083123D08F000F00D701090307004EA
:0E062A00CB005C205130CB005C205B2108002F
:1006380083120313C1010630410203182A2B410813
:100648003F07840030308000C10A1F2B41083F0754
:100658008400800100303E06031D342B00303D0627
:10066800031D372B882BC00180303E06F0008030F8
:100678007002031D412B00303D0203184E2B013040
:10068800C0003D08003CC2003E08031C013EC301F7
:10069800C302522B3D08C2003E08C3000530C1000A
:1006A80000304306031D5A2B003042060319812BE4
:1006B80041083F07C4000A30F4000030F500420842
:1006C800F0004308F1002E207808F0007908F100C6
:1006D8003030F0074408840070088000C1030A30F5
:1006E800F4000030F5004208F0004308F1002E2025
:1006F8007008C2007108C300542B40080319882BE6
:0A0708003F0884002D308000080037
:10071200D3218A110A128000840AA00A0319A10AAD
:08072200F003031D892B080000
:10072A008316031387100710071187110712871200
:10073A0083128710071087120712871107110320E7
:10074A000320032087150715871416208710032016
:10075A008714162087100320871416208710032079
:10076A000711871416208710032087141620871074
:10077A0087118716871416208710032087120715FA
:10078A008714162087100711871416208710032054
:10079A008714162087100715871416208710032040
:1007AA00071187141620871087160716871507154D
:0C07BA008714162087100320221408006A
:1007C600831203133D08C600A130C7004008C900C4
:1007D600C8017E210D30FC00FB30FD00FD0BF12B26
:1007E600FC0BF12B0000000083123D08C600A2306E
:1007F600C7003E08C900C8017E210D30FC00FB3051
:10080600FD00FD0B042CFC0B042C0000000008006E
:100816004B2083123D08F000F00D701090307004EC
:10082600CB005C20AC30CB005C203E088400000886
:10083600CB005C205B210D30FC00FB30FD00FD0B86
:0C084600222CFC0B222C000000000800FB
:1008520095230130CB001B210C30CB001B2123142C
:10086200A3140C302304F0007008A300BD01233050
:10087200BE000B248312BD011930BE000030BF0040
:100882001E30C0000030C100E3238312BD010D23DE
:100892000430FB00CF30FC000130FD00FD0B4F2C7B
:1008A200FC0B4F2CFB0B4F2C00000000013083127D
:1008B200CB001B210130BD000530BE004430AD002D
:1008C2005330AE003130AF003630B0003330B100BB
:1008D2003130B200B3012D30BF0026220230BD00FC
:1008E2000130BE005430B4006530B5006D30B60042
:1008F2007030B7003A30B8002030B900BA01343055
:10090200BF002622BD013B30F00005220230F30079
:100912002430F2003B30F100710884000008F0003E
:100922007208840070088000F20AF10AF303031DC2
:100932008D2C8312FF302505BD00BE010030BE059F
:100942000030BE002630BF0091222930BD00FB22BC
:100952002E30C6007621F0302405F400F40CF41396
:10096200F40CF413F40CF413F40CF4137130F000DF
:100972000230F1000030F50066227008BD007108F7
:10098200BE002630BF001C232830BD00FB22DF3012
:0E099200C60076214330C6007621462CCF2CBD
:02400E004A2F37
:00000001FF
