:040000008A157C28B9
:10000600FB14FB1F0D28FF30F300F200F100F00097
:08001600FA0DF20CFF300800A6
:08001E00FA1FF2130030080084
:100026007B15FB1F1D280130F300F201F101F001E1
:08003600FA0DF20CFF30080086
:0E003E00F201F101F001F801F30100300800B9
:10004C00063084000008000883120313F0007010BF
:06005C007008800008009E
:10006200083083120313FC002330FD00FD0B3728F8
:06007200FC0B372808001A
:10007800103083120313FD00FD0B40280000080018
:100088007C187A28FC184B287C1999284428A00148
:100098007208031D6B287108F2007008F1007808D7
:1000A800F000F801A0157208031D6B287108F20012
:1000B8007008F100F001A01120167208031D6B28CA
:1000C8007108F200F101A015720803198D282008A3
:1000D800F302031D031C91280310F21B7A28F80D64
:1000E800F00DF10DF20DF30B712891287B1B701C9C
:1000F8009528F81F9528F00A0319F10A0319F20A3E
:10010800031D9528F20CF10CF00CF30A0319992839
:1001180095280130FC001F209C280230FC00132089
:100128009C280430FC000F209C280830FC00032089
:0401380000000800BB
:04013C0000000800B7
:10014000A0017208031DB5287108F2007008F100C3
:10015000F001A0157208031DB5287108F200F10125
:10016000A011201672080319C3282008F302031DEA
:10017000031CC7280310F21BCB28F00DF10DF20D64
:10018000F30BBB28C7280130FC001F20CE2802300B
:0E019000FC001320CE280430FC000F200800D5
:10019E00063084000008000883120313F000F010EC
:0601AE007008800008004B
:1001B4008316031386149E209E2006149E209E20E0
:1001C400CF20831686109E209E202620831606109C
:0201D400080021
:1001D600CF20831686109E209E2006148312AD1013
:1001E6000618F928AD1CF828F928F3289E209E2029
:1001F6009E209E209E209E209E209E208316861452
:060206009E209E2008006E
:10020C00013083120313D0000030D1008030CE00B7
:10021C00CF014E084F0403193C299E209E209E209E
:10022C009E202620831606109E209E2083124E08A8
:10023C004D05F00000304F05F100700871040319F2
:10024C002A29831686142D29CF20831686109E20EA
:10025C009E2006148312AD1006183829AD1C3729C0
:10026C0038293229CF0CCE0CCF130F29D001D10154
:10027C009E209E202620831606109E209E208614EB
:10028C009E209E209E209E2006148312AD100618E0
:10029C005329AD1C522953294D29D001D1019E203F
:1002AC009E20861C5A2950149E209E209E209E2003
:1002BC009E209E209E209E209E209E209E209E2042
:1002CC009E209E209E209E20262083160610CF2046
:0C02DC008316861083125008F000080002
:0602E800FB15FF300800C9
:1002EE0083120313CF01D0018030D1000030D20031
:1002FE00510852040319A2299E209E2083168614AB
:10030E009E209E2006148312AD1006189229AD1C55
:10031E00912992298C29861C98295108CF045208BC
:10032E00D0049E209E202620831606108312D20C07
:10033E00D10CD2137F29831686149E209E20831201
:10034E004D084E040319AE29CF208316861083164E
:10035E009E209E2006148312AD100618BA29AD1CDD
:10036E00B929BA29B4299E209E202620831606106C
:10037E009E209E20CF208316861083124F08F000F9
:02038E00080065
:100390008312031372087606A000F801F9017308AE
:1003A0007702031CEB297708FD007308F7007D082E
:1003B000F3007608FD007208F6007D08F20075086B
:1003C000FD007108F5007D08F1007408FD0070085B
:1003D000F4007D08F00077080319642A7208FA0017
:1003E000F217F61777087302F70003191E2A083070
:1003F0007702031C142AF7007408F9007508F4004A
:100400007608F500F60108307702031C142AF7007D
:100410007408F9007508F400F50108307702031C30
:10042000142A7A08F200642A770803191E2A031096
:10043000F60CF50CF40CF90CF70B172AA01F2B2A5D
:10044000F909F409F509F609F90A0319F40A031977
:10045000F50A0319F60A7908F80774080318740FE7
:10046000F00775080318750FF10776080318760F63
:10047000F207A01B442A031C542AF20CF10CF00CC6
:10048000F80CF30F542A602A0318582AF809F009C7
:10049000F109F209F80A0319F00A0319F10A03191C
:1004A000F20A8030FA065C2A0130FC004420662AF9
:1004B0000230FC004420662A0430FC00A020662A9A
:1004C0000830FC000320662A0030FC000000080011
:1004D00083120313CD1B6E2A87126F2A87164D1BBA
:1004E000732A0712742A0716CD1A782A8711792AD7
:1004F00087154D1A7D2A07117E2A07152D18822A85
:100500000714832A071087149E208710CD198A2A82
:1005100087128B2A87164D198F2A0712902A0716E1
:10052000CD18942A8711952A87154D18992A0711F5
:100530009A2A07152D189E2A07149F2A0710871438
:100540009E2087102D1CA62A3120A72A3C200800B7
:1005500083120313FB017308031D77080319FF2A95
:1005600072087606FA007708F3077E30031CBC2A6F
:10057000F3020318022BBF2AF302031C052B720897
:10058000F8007108FC007008FD00F817F61703105A
:10059000F201F101F0011830A0007D1CD92A740885
:1005A000F00775080318750FF10776080318760F22
:1005B000F207F20CF10CF00CF80CFC0CFD0C031023
:1005C000A00BCD2AF21BE92AF80DF00DF10DF20D6A
:1005D000F3037B1B701CFB2AF81FFB2AF00A03198C
:1005E000F10A0319F20A031DFB2AF20CF10CF00CBC
:1005F000F30A0319022BFA1FF2130030072B013004
:100600001F20072B02300320072B0430132000008B
:020610000800E0
:1006120083120313FA017308031D7A147708031D6A
:10062200FA147A080319552B033A0319202B7A1866
:100632001D2BF61F532B512BF21F512B532B7208DC
:100642008039FA00F21376088039F6137A06031914
:100652002E2B7A080319512B532B77087302031997
:10066200352B031C492B4D2B7608720203193C2BA8
:10067200031C492B4D2B750871020319432B031CD4
:10068200492B4D2B740870020319552B03184D2B5F
:10069200FA080319532B512BFA080319512B532B28
:1006A20003140800031008000314031508000800CF
:1006B20083120313FD01F801700803190034740654
:1006C200FA00FA1BFD09FB01F41F692BF409F40A75
:1006D200F01F6D2BF009F00A70087404FA00FA1B7F
:1006E200912B7408F802F00D700DF80D7408F807DC
:1006F200F00D0630FC00700DF80D74087018F80249
:10070200701CF807F00DFC0B7C2B701CF8077B1893
:100712009F2BFD1F0034F009F00AF809F80A003493
:10072200F41F9C2BF01B992B7008F800F0018A2B08
:10073200F001F00A0034F009FB0A722BF80A74087F
:100742007802031D8A2BF801F00AF01F8A2BFF346E
:0207520008009D
:0C075400831203138030F606C821080051
:10076000831203132D104A08CD0068222D140800AF
:10077000DA2080308312CD0006210330CD0006211F
:100780004A08CD000621EB208312CA1ED12B1A3055
:10079000FC00F830FD00FD0BCB2BFC0BCB2B00003D
:1007A000DB2B3430FC00F130FD00FD0BD52BFC0BB6
:1007B000D52B00000000DA2080308312CD00062106
:1007C0000130CD000621EB20DA2081308312CD00EC
:1007D00006210130CD00CE0177217008CC00CD017B
:1007E000CE0177217008CB00EB2083124B08F0007C
:0607F0004C08F1000800B6
:1007F600831203137408003A031D162C7508003A79
:10080600031D162C7608003A031D162C7708003AAD
:10081600031D162CFF30F000FF30F1007F30F20090
:10082600FF30F300B12C8312031377080319A52CAC
:1008360073080319A82C720876068039FA00F21795
:10084600F617A0017208F8007108FC007008FD0098
:100856007408FD027508031C750FFC027608031C5C
:10086600760FF802F801FC01FD01031C412C031070
:10087600F20CF10CF00CF80C0130A0007708F30232
:10088600031C4B2C7E302007F3070318AB2C502C8F
:100896007E302007F307031CAE2C1830FA07FD0D37
:1008A600FC0DF80DF00DF10DF20DA00D7408F0021F
:1008B6007508031C750FF1027608031C760FF20209
:1008C600760DA004201C692C7D14742C7408F00786
:1008D60075080318750FF10776080318760AF207EC
:1008E6007D10FA031F307A05031D522C7B1B7D1CDD
:1008F6009B2C0310F00DF10DF20DA00D7408F00203
:100906007508031C750FF1027608031C760FF202B8
:10091600760D20040139FD070318FC0A0319F80AAD
:10092600031D9B2CF80CFC0CFD0CF30A0319AB2CD5
:10093600FA1FF8137808F2007C08F1007D08F00031
:100946000030B02C01307421B02C02301F20B02CA6
:0E09560004300320B02C0830132000000800ED
:0E096400831203132C088A002B08820008005F
:10097200831203134A08F2007208F100F20A4B08CC
:10098200F000CB0A700884000008F00071088400AF
:10099200700880007108840000080319D12CBD2C56
:0609A2004A08F000080005
:1009A800831203137008F8007108F000F101F201D6
:1009B800F301FB01FC019630F300FA017008F10025
:0C09C8007808F000F801F201A0200800FF
:1009D400B2248A110A128000840AAB0A0319AC0AF1
:0809E400F003031DEA2C0800DA
:1009EC00082D803083120313BD001B2DC030BD00B9
:1009FC001B2D9430BD001B2DD430BD001B2D803021
:100A0C00BD001B2D831203133D08013A0319F72C6B
:100A1C003D08023A0319FC2C3D08033A0319FF2C3C
:100A2C003D08043A0319022D052D3E03F0003D0844
:100A3C00F0077008BD007008CD0068222D10C001B1
:100A4C0040083F07840000080319342D40083F0775
:100A5C0084000008CA00B023C00A262D2D140800FB
:100A6C00831203133E123D183D2DBE123E2DBE16B1
:100A7C003E140130F3004A30F2003E30F1007108B0
:100A8C0084000008F0007208840070088000F20AEC
:100A9C00F10AF303031D452DB8237008F400710807
:100AAC00F500F50CF40CF513F50CF40CF513F50C32
:100ABC00F40CF513F50CF40CF5137408F000750830
:100ACC00F100D4240030F4000030F5000030F600C2
:100ADC008330F700FB230030F4000030F500403089
:0A0AEC00F6008330F700AA2308008B
:100AF60083120313C801C9013D08C4003E08C5009E
:100B06003F08C6004008C7004708FF3A031D952D59
:100B16004608FF3A031D952D4508FF3A031D952DFE
:100B26004408FF3A031D9F2D4108CA002530CB001B
:100B3600B9240330F000782F0130C200C61FAE2D55
:100B460080304606F0007008C600C20A41088400DC
:100B56002D308000C10A0030F0004706031DBD2D70
:100B660070084606031DBD2D70084506031DBD2DE4
:100B76004408003A031DC62D4108CA002930CB009F
:100B8600B924F001782F4708FF3A031DD42D4608F3
:100B9600003A031DD42D4508003A031DD42D440800
:100BA600003A031DDE2D4108CA002130CB00B924CE
:100BB6004208F000782F0030F4000030F5000030D5
:100BC600F6007F30F7004408F0004508F1004608BB
:100BD600F2004708F3000923013003180030F00043
:100BE60070080319112E4408F0004508F100460864
:100BF600F2004708F3000030F4000030F500203022
:100C0600F6008230F700A8227008C4007108C500FB
:100C16007208C6007308C700C903DE2D0030F40051
:100C26000030F5002030F6008230F7004408F0006E
:100C36004508F1004608F2004708F3000923013091
:100C4600031C0030F00070080319442E4408F0001D
:100C56004508F1004608F2004708F300CD30F400DD
:100C6600CC30F5004C30F6007B30F700A822700837
:100C7600C4007108C5007208C6007308C700C90A17
:100C8600112EFF304405F800FF304505F9007F308E
:100C96004605FA0000304705FB007808F40079089D
:100CA600F5007A08F6007B08F700F40DF50DF60D51
:100CB600F70D741000304405F00000304505F100D2
:100CC60000304605F200FF304705F3007008C40007
:100CD6007108C5007208C6007308C700740844048A
:100CE600F00075084504F10076084604F20077081E
:100CF6004704F3007008C4007108C5007208C600F6
:100D06007308C7007F304702F0007008C300013047
:100D1600C7007008F4004408F0004508F1004608D2
:100D2600F2004708F30074080319A02EF00DF10D28
:100D3600F20DF30D7010FF3E972E7008C400710877
:100D4600C5007208C6007308C7004708303EF000A9
:100D56004108840070088000C10A80304906F0000E
:100D66008030013A7002031CC12E8030063AF00032
:100D7600803049067002031CC12EC82E410884002B
:100D86002E308000C10A0130C8000630C300430877
:100D9600003A0319262FC7014408F0004508F10060
:100DA6004608F2004708F300F00DF10DF20DF30DC1
:100DB6007010F00DF10DF20DF30D70104408F007F0
:100DC60045080318450FF10746080318460FF207B2
:100DD60047080318470FF3077008C4007108C500D9
:100DE6007208C6007308C7004408F0004508F10001
:100DF6004608F2004708F300F00DF10DF20DF30D71
:100E060070107008C4007108C5007208C600730827
:100E1600C7004708303EF000410884007008800093
:100E2600C10A4808003A031D242FC9034908003A9D
:100E3600031D242F410884002E308000C10A013092
:100E4600C800C303CA2EFF30410784000008303AA9
:100E5600031D2F2FC103262FFF30410784000008F2
:100E66002E3A031D372FC1034908003A0319742F80
:100E76004108840065308000C10A80304906F000D0
:100E86008030003A70020318502F410884002D303C
:100E96008000C10A4908003CC9004908C3008030E7
:100EA600093AF0008030490670020318662F0A30AE
:100EB600F4004308F00059233030F007410884005D
:100EC60070088000C10A0A30F4004308F000592374
:100ED6007808F0003030F007410884007008800080
:0C0EE600C10A410884008001F0010800EE
:100EF200831203133E163D18802FBE12812FBE1699
:100F02003E140130F3004A30F2003E30F100710825
:100F120084000008F0007208840070088000F20A61
:100F2200F10AF303031D882FB8237008F400710837
:100F3200F500F50CF40CF513F50CF40CF51374082C
:100F4200F0007508F100D4240030F4000030F50000
:100F52000030F6008430F700FB230030F40000304C
:0E0F6200F5004830F6008430F700AA2308009E
:100F700083160313061486148312AD100618C42FAB
:0A0F8000AD1CC32FC42FBE2F0800C4
:100FA000213084000A3083120313F000C530AB00F7
:080FB0000730AC00EA24080040
:101000008316031387100710071187110712871221
:1010100083128710071087120712871107118A1190
:1010200031208A158A1131208A158A1131208A15BA
:101030008715071587148A119E208A1587108A1133
:1010400031208A1587148A119E208A1587108A11EB
:1010500031208A1587148A119E208A1587108A11DB
:1010600031208A15071187148A119E208A1587104E
:101070008A1131208A1587148A119E208A158710BB
:101080008711871687148A119E208A1587108A1166
:1010900031208A158712071587148A119E208A1518
:1010A0008710071187148A119E208A1587108A11CC
:1010B00031208A1587148A119E208A1587100715FA
:1010C00087148A119E208A1587108A1131208A156B
:1010D000071187148A119E208A1587108716071614
:1010E0008715071587148A119E208A1587108A1183
:0810F00031208A152D140800BF
:1010F8008A11D0278A158A11B8278A15002001304D
:10110800CD008A1168228A150C30CD008A11682218
:101118008A15BD018A1179278A157008BD007108E2
:10112800BE007208BF007308C0002E30C1008A11CB
:101138007B258A150230BD000130BE002E30BF006D
:101148008A11F6248A150130BD008A1136258A15C0
:101158007008BD007108BE007208BF007308C000A7
:101168002E30C1008A117B258A150130BD0001305F
:10117800BE002E30BF008A11F6248A150630FB0007
:101188001330FC00AD30FD00FD0BC828FC0BC8284F
:0C119800FB0BC828000000008D28D128A7
:080F8A0049344E3446340034B2
:080F92004E3461344E3400348A
:040F9A0030340034BB
:02400E004A2F37
:00000001FF
