:02000000522884
:0E000600073083120313FD00FD0B07280800CE
:0400140000000800E0
:10001800803083120313A900A809290803192A2884
:1000280029082805F10071080130031D0030F0008F
:10003800701820280611212806150A200A200614FF
:0E004800032006100320A90CA913112808009C
:0C00560083160313861083128614080022
:1000620083160313061506110610831206110611D4
:04007200061008006C
:100076008312031324184128A6134228A617261311
:1000860027184728A6164828A612261686102608D8
:0E009600A8000C202508A8000C2086140800E5
:1000A40083120313A201A30131202B20A4012208EF
:1000B400A5002308A600A7013B200130A4002208C4
:1000C400A5002308A6000130A7003B20A20A0319BB
:1000D400A30AFF30A2050F30A3058230FC00DD30F7
:1000E400FD00FD0B7328FC0B73280000000058284A
:0200F4007A2868
:02400E004A2F37
:00000001FF
