:02000000552C7D
:0400060000000800EE
:10000A00083083120313FC002330FD00FD0B0B287C
:06001A00FC0B0B2808009E
:10002000103083120313FD00FD0B1428000008009C
:10003000FB09FA09F909F809F80A0319F90A031979
:08004000FA0A0319FB0A08008B
:0E004800073083120313FD00FD0B282808006B
:100056007408F8027508031C750FF9027608031C6C
:10006600760FFA027708031C770FFB02F30D0730B1
:10007600FC00730DF80DF90DFA0DFB0D7408731CD9
:100086005228F8027508031C750FF9027608031C3E
:10009600760FFA027708031C770FFB025F28F80732
:1000A60075080318750FF90776080318760FFA070F
:1000B60077080318770FFB07F30DFC0B3C28720D2E
:1000C600F80DF90DFA0DFB0D7408731C7828F8026B
:1000D6007508031C750FF9027608031C760FFA02E1
:1000E6007708031C770FFB028528F80775080318A5
:1000F600750FF90776080318760FFA0777080318BD
:10010600770FFB07F20D0730FC00720DF80DF90DA5
:10011600FA0DFB0D7408721C9E28F8027508031C64
:10012600750FF9027608031C760FFA027708031C8E
:10013600770FFB02AB28F80775080318750FF90748
:1001460076080318760FFA0777080318770FFB0768
:10015600F20DFC0B8828710DF80DF90DFA0DFB0D4B
:100166007408721CC428F8027508031C750FF9027E
:100176007608031C760FFA027708031C770FFB023A
:10018600D128F80775080318750FF90776080318BC
:10019600760FFA0777080318770FFB07F10D07307C
:1001A600FC00710DF80DF90DFA0DFB0D7408711CAC
:1001B600EA28F8027508031C750FF9027608031C75
:1001C600760FFA027708031C770FFB02F728F80769
:1001D60075080318750FF90776080318760FFA07DE
:1001E60077080318770FFB07F10DFC0BD428700D69
:1001F600F80DF90DFA0DFB0D7408711C1029F802A3
:100206007508031C750FF9027608031C760FFA02AF
:100216007708031C770FFB021D29F80775080318DA
:10022600750FF90776080318760FFA07770803188B
:10023600770FFB07F00D0730FC00700DF80DF90D78
:10024600FA0DFB0D7408701C3629F8027508031C9C
:10025600750FF9027608031C760FFA027708031C5D
:10026600770FFB024329F80775080318750FF9077E
:1002760076080318760FFA0777080318770FFB0737
:10028600F00DFC0B2029701856297408F80775081C
:100296000318750FF90776080318760FFA0777081B
:0802A6000318770FFB070800A5
:1002AE0083120313C81B5D2987125E298716481B0C
:1002BE006229071263290716C81A67298711682948
:1002CE008715481A6C2907116D29071525187129EC
:1002DE00071472290710871403208710C81979296B
:1002EE0087127A29871648197E2907127F29071641
:1002FE00C81883298711842987154818882907115A
:10030E008929071525188D2907148E29071087149A
:10031E0003208710251C95290520962910200800FA
:10032E0083120313F801F9011030FC00710DF80D62
:10033E00F90D7408F8027508031C750FF9020318FD
:10034E00AF297408F80775080318750FF90703101D
:0A035E00F00DF10DFC0B9D290800C5
:10036800831203132230FC00F801F901FA01FB01A2
:10037800FC030319EA290310FB0CFA0CF90CF80C1E
:10038800F30CF20CF10CF00C031CBC29FC03031950
:10039800DC297408F80775080318750FF90776083B
:1003A8000318760FFA0777080318770FFB07C02999
:1003B8007408F80775080318750FF9077608031805
:0E03C800760FFA0777080318770FFB07080077
:1003D600C730831203139F052108F000F00D70103B
:1003E600F00D7010F00D701070089F0424201F157A
:1003F6001F1DFF290000FB291E08F100F0018316CE
:0A0406001E08F0040030F1040800A5
:1004100083120313C601053046020318162A460844
:100420004507840020308000C60A0B2A460845078D
:1004300084008001C60346084507C7000A30F4005F
:10044000F5014308F0004408F10097217808F00016
:100450007908F1003030F007470884007008800008
:100460000A30F400F5014308F0004408F100972138
:100470007008C3007108C40000307106031D422AD1
:1004800000307006031D452A472AC6031B2A0800B0
:100490008312031325104308C800572125140800B0
:1004A000831203137408003A031D6B2A7508003A7F
:1004B000031D6B2A7608003A031D6B2A7708003A61
:1004C000031D6B2AFF30F000FF30F100FF30F20017
:1004D0007F30F300042B83120313FC01F71BFC0A8B
:1004E000FD01FB01FA01F901F801730872047104BE
:1004F00070040319FF2A73087706A000A01BFD09EA
:10050000F71F8D2AF409F509F609F709F40A03190A
:10051000F50A0319F60A0319F70AF31F9A2AF009D4
:10052000F109F209F309F00A0319F10A0319F20AB1
:100530000319F30A73087704A000A01BBB2A2B2021
:10054000FC1BD82AFD1FFF2AF009F109F209F30963
:10055000F00A0319F10A0319F20A0319F30AF80958
:10056000F909FA09FB09F80A0319F90A0319FA0A41
:100570000319FB0AFF2AF71FD22AF31BCC2A7308A0
:10058000FB007208FA007108F9007008F800F30126
:10059000F201F101F001A22AF301F201F101F001EF
:1005A000F00A0034F309F209F109F009FC179F2A57
:1005B000F80A0319F90A0319FA0A0319FB0A74085D
:1005C0007802031DA22A75087902031DA22A760863
:1005D0007A02031DA22A77087B02031DA22AFB01CF
:1005E000FA01F901F801F00A0319F10A0319F20AF4
:1005F0000319F30AF31FA22AA0012016FF34A00159
:0A0600007C1C032B1820003E0800AC
:0E060A008312031324088A00230882000800CC
:1006180005238A110A128000840AA30A0319A40A6E
:08062800F003031D0C2B080078
:1006300083120313BF01C0013A08C1003B08C20086
:1006400080303B06F00080307002031D292B003003
:100650003A020318372B0130BF000030C0003A08BF
:10066000003CC1003B08031C013EC201C20241081C
:10067000C3004208C4003C08C50008220630BD0083
:100680000030BE003E08003C031D482B3D08003CE6
:100690000318632B3D083C07F20001303D02F000D7
:1006A0000030031C013E3E02F10070083C0784004C
:1006B0000008F00072088400700880000130BD025C
:1006C000031CBE03422B3C088400203080003F08FE
:1006D00040040319812BBD01BE013D083C07840085
:1006E0000008203A031D782BBD0A0319BE0A6D2BA2
:1006F0000130BD02031CBE033D083C0784002D30C1
:04070000800008006D
:10070400942B803083120313BA00A72BC030BA0095
:10071400A72B9430BA00A72BD430BA00A72B803073
:10072400BA00A72B831203133A08013A0319832B47
:100734003A08023A0319882B3A08033A03198B2B17
:100744003A08043A03198E2B912B3B03F0003A0824
:10075400F0077008BA007008C80057212510BD01C1
:100764003D083C07840000080319C02B3D083C07E2
:1007740084000008C3004822BD0AB22B25140800D7
:1007840083120313BB013B083A07840000080319D2
:10079400D32B3B083A0784000008C3004822BB0A55
:0407A400C52B080059
:1007A800EB3083120313A6000130A7002130A80004
:1007B80000309F01C0309F042209F00070088316A2
:0C07C8009F051F179F1783121F140800C5
:1007D4008316031387100710071187110712871256
:1007E400831287100710871207128711071105203B
:1007F4000520052087150715871403208710052079
:1008040087140320871005208714032087100520F0
:1008140007118714032087100520871403208710ED
:100824008711871687140320871005208712071560
:1008340087140320871007118714032087100520CD
:1008440087140320871007158714032087100520B9
:1008540007118714032087108716071687150715B5
:0C086400871403208710052025140800CD
:10087000831203133A08A100EB210030F200F300C9
:10088000F430F4000130F5000030F6000030F700DD
:10089000B4210030F4000430F500F601F7015022D5
:0A08A0003230F002031CF1030800DF
:1008AA00AA240E30831603139F0007309C00D4231A
:1008BA00EA230130C80057210C30C8005721BA0179
:1008CA0038247008BA007108BB002930BC0018230C
:1008DA000130BA000530BB005430B0004330B100DB
:1008EA003130B2003030B3003430B4003730B500A4
:1008FA004130B600B7013030BC0082230230BA0062
:10090A000330BB002930BC008223DF30C3004822F9
:10091A004330B800B9013830BA00C2230630FB00B0
:10092A001330FC00AD30FD00FD0B992CFC0B992C0B
:0C093A00FB0B992C00000000642CA22C88
:1009540022308400013083120313F000A830A30076
:080964000430A4000C2308007C
:020950000F3462
:02400E00492F38
:00000001FF
