:0200000077295E
:100006008312031306140330FD00FD0B08280610A7
:100016000000000006140930FD00FD0B102800004A
:0400260000000800CE
:10002A008312031306140330FD00FD0B1A28061071
:10003A000930FD00FD0B1F280000000006141330D4
:0C004A00FD00FD0B26280000000008004F
:1000560083120313601C3128032032281520080060
:100066008312031306140330FD00FD0B3828061017
:100076008530FD00FD0B3D280614C730FD00FD0B45
:08008600422800000000080000
:10008E00831203135C08DF000614DE0102305E02E9
:10009E00031873285E1855280314562803100030D1
:1000AE0003180130E0002B2000305C1A0130E00014
:1000BE002B20DD0104305D0203186E280030DC19A0
:1000CE000130E0002B20DC0D5C10DD0A61283320AE
:1000DE005F08DC00DE0A4D284230FD00FD0B75285E
:0400EE000000080006
:1000F200831203135B08DC00DC0CDC13DC0CDC1366
:10010200DC0CDC13DC0CDC1347200F305B05DC005D
:1001120047200D30FC00FB30FD00FD0B8E28FC0B50
:080122008E2800000000080017
:10012A00831203135B08DC00DC0CDC13DC0CDC132D
:10013A00DC0CDC13DC0CDC135C1647200F305B058F
:08014A00DC005C1647200800F0
:10015200831203135908840000080319B7285908A9
:0E01620084000008DB009520D90AA9280800B7
:0E0170008312031321088A0020088200080071
:10017E0083120313F8010830FC00700DF80D74089B
:10018E00F8020318CC28F8070310F00DFC0BC42856
:02019E00080057
:1001A000DF28BF3083120313D900EE289330D90023
:1001B000EE28D330D900EE287F30D900EE28831204
:1001C00003135908023A0319D1285908033A0319AD
:1001D000D6285908043A0319D928DC285A0859079F
:0601E000DB00792008009D
:1001E60083120313D7010330570203180129570856
:1001F6005607840020308000D70AF628570856078D
:1002060084008001D70357085607D8000A30F40047
:100216005508F000BF207808F0003030F007580885
:100226008400700880000A30F4005508F000BF20F2
:100236007008D5007008003A031D22292429D70327
:04024600062908007D
:10024A00B8208A110A128000840AA00A0319A10A96
:08025A00F003031D2529080033
:10026200831203135508D9005608DA00D020570824
:06027200D900A9200800DC
:10027800831603130610831206148230FC00DD3047
:10028800FD00FD0B4529FC0B45290000000003304B
:10029800DC0047200C30FC00AF30FD00FD0B52297C
:1002A800FC0B52290330DC0047200C30FC00AF3037
:1002B800FD00FD0B5D29FC0B5D290330DC004720A8
:1002C8006330FD00FD0B6629000000000230DC00F1
:1002D80047202830DB0079200C30DB0079200630FD
:0602E800DB007920080094
:1002EE0083120313D0013C210130DB007920013051
:1002FE00D5000330D6004D30A2006930A300633024
:10030E00A4007230A5006F30A6006330A7006F30D6
:10031E00A8006E30A9007430AA007230AB006F30A6
:10032E00AC006C30AD006130AE006E30AF006430AA
:10033E00B0006F30B1007330B200B3012230D7007D
:10034E0031210230D5000230D6004C30B40043309B
:10035E00B5004430B6002030B7003130B8002D3033
:10036E00B9005730BA006930BB007230BC0065303E
:10037E00BD002030BE003730BF003430C0004830E2
:10038E00C1004330C2003530C3003930C4003530AF
:10039E00C500C6013430D70031210330D5000730F7
:1003AE00D6004330C7006F30C8006E30C9007430BD
:1003BE00CA006130CB006430CC006F30CD0072309B
:1003CE00CE00CF014730D70031215008D500513033
:1003DE00D600F320D00A0430D5000930D6005130B3
:1003EE00D70031210B30FB002630FC005D30FD00C4
:1003FE00FD0BFF29FC0BFF29FB0BFF290000000062
:04040E00EC29082AA3
:100412004D346934633472346F3463346F346E3400
:10042200743472346F346C3461346E3464346F34C7
:0404320073340034EB
:100436004C3443344434203431342D345734693405
:1004460072346534203437343434483443343534E4
:0604560039343534003496
:10045C0043346F346E347434613464346F347234B6
:02046C0000345A
:02046E00003458
:02400E004A2F37
:00000001FF
