:0200000058297D
:10000600831203132F08003A013003190030F00061
:1000160070180F2886101028861406100000061483
:0400260006100800B8
:10002A00710DF80DF90D7408F8027508031C750FA7
:10003A00F902F00DF10D0F30FC00710DF80DF90DFC
:10004A007408701C2E28F8027508031C750FF90233
:10005A003328F80775080318750FF907F00DF10D25
:10006A00FC0B222870183F287408F8077508031833
:08007A00750FF90700000800F2
:10008200831203130610AE0108302E020318522801
:100092000030AD1B0130AF000320AD0D2D10AE0AB4
:0600A2004528861008004D
:1000A800831203137408003A031D63287508003A85
:1000B800031D6328FF30F0007F30F100BC28831255
:1000C8000313FD01F901F8017108700403190034E4
:1000D80071087506FA00FA1BFD09FB01F51F79285E
:1000E800F409F509F40A0319F50AF11F8028F00943
:1000F800F109F00A0319F10A71087504FA00FA1BEC
:10010800952815207B18A828FD1F0034F009F1094F
:10011800F00A0319F10AF809F909F80A0319F90AA2
:100128000034F51FA428F11BA0287108F9007008F5
:10013800F800F101F0018828F101F001F00A00341B
:10014800F109F009FB0A8528F80A0319F90A740865
:100158007802031D882875087902031D8828F9018B
:10016800F801F00A0319F10AF11F88280000FF348A
:0201780008007D
:0E017A0083120313061100000615061108007B
:0E018800831203132608AD004120BD2008009D
:10019600831203132908AD0041202808AD00412031
:1001A6002708AD0041202608AD004120BD200800EB
:1001B600831203132708AD0041202608AD00412015
:0401C600BD20080050
:1001CA00831203132608A900270828040319F8280C
:1001DA000130A702031CA803270829078400000886
:0A01EA00AD004120E928BD20080007
:1001F400083083120313F4000030F5002708F000E0
:100204002808F10054207008A9007108AA000130E0
:100214002702F0000030031C013E2802F1000830E0
:10022400F4000030F50054207808F0007908F1005B
:100234007008F2000130F0000030F1007208031978
:100244002829F00DF10D7010FF3E21297008AB0034
:100254002608AC0080302A06F00080307002031DAE
:10026400352900302902031C4C292B08003A0319B4
:10027400452929082C0784002B080005AF0003201A
:10028400AB0CAB1337298030AB000130A902031C3F
:08029400AA032C29BD2008007B
:10029C00831603138610061006118312861006109F
:0402AC00061108002F
:1002B000AA3083120313A2005530A3001730A40004
:1002C0007130A5004E212230A6000B30A70000306F
:1002D000A800FA201A30FB005E30FC006E30FD00F2
:1002E000FD0B7029FC0B7029FB0B702900002230DC
:1002F000A6000330A7000030A800E5201A30FB005C
:100300005E30FC006E30FD00FD0B8429FC0B84295F
:10031000FB0B842900002208A6002308A70024085C
:10032000A8002508A900CB201A30FB005E30FC0095
:100330006E30FD00FD0B9A29FC0B9A29FB0B9A29C4
:1003400000002208A6002308A700DB201A30FB00CB
:100350005E30FC006E30FD00FD0BAC29FC0BAC29BF
:10036000FB0BAC2900002208A600C4201A30FB00B9
:100370005E30FC006E30FD00FD0BBC29FC0BBC297F
:0A038000FB0BBC2900006329C4290F
:02400E006A2125
:00000001FF
