:020000009E2838
:10000600831603139818092800000328831247084B
:040016009900080045
:10001A00FE3083120313C70003204608C7000320DB
:10002A000D30FC00FB30FD00FD0B1928FC0B1928D4
:06003A00000000000800B8
:10004000831203134408203E840045080007C600BD
:040050000D20080077
:10005400831603139816903083129800831686141F
:10006400061183128C1E39281A08F0003328080060
:0E0074008312031325088A0024088200080066
:100082000730831203134105F2007208F000F00DED
:100092007010F00D7010F00D70107008403EC60028
:1000A2000D20C3010830430203185F2843084207AA
:0E00B20084000008C7000320C30A532808007A
:1000C0008312031341088400000803196E284108B5
:0E00D00084000008C7000320C10A6028080051
:1000DE00333083160313990018152A200630FB00BF
:1000EE001330FC00AD30FD00FD0B7B28FC0B7B2894
:1000FE00FB0B7B28000000000C30C6000D20080012
:10010E00831203134108C4004208C500202043088F
:06011E00C70003200800E9
:100124003A208A110A128000840AA40A0319A50A33
:08013400F003031D92280800EE
:10013C00803083120313A000C030A1009430A200C1
:10014C00D430A300B9010A30BA001F30BB001F30F5
:10015C00BC001F30BD000E30BE000430BF00C0011B
:10016C006F200130C6000D200530C1003930C200AF
:10017C004120A601043026020318F5282608C100E8
:10018C00C2010530C30087204D30A7006930A8009C
:10019C006330A9007230AA006F30AB006330AC0042
:1001AC006F30AD006E30AE007430AF007230B00006
:1001BC006F30B1006C30B2006130B3006E30B400FF
:1001CC006430B5006F30B6007330B700B80127301B
:1001DC00C10060200530C7000320A60AC028F528FE
:02400E006A2125
:00000001FF
