:020000003129A4
:1000060083123F18082805110928051585140000D4
:040016008510080049
:10001A0083123B08BE008510BD0102303D02031861
:10002A003B283D181A2803141B2803100030031814
:10003A000130BF00032000303B1A0130BF0003200B
:10004A00BC0104303C02031833280030BB190130CC
:10005A00BF000320BB0D3B10BC0A26280516000072
:10006A00051205113E08BB00BD0A12282130DD0029
:06007A00DD0B3D2808002B
:1000800083123A08BB00BB0CBB13BB0CBB13BB0CED
:10009000BB13BB0CBB130D200F303A05BB000D206A
:1000A0000730DC007D30DD00DD0B5428DC0B5428EC
:0200B000080046
:1000B20083123A08BB00BB0CBB13BB0CBB13BB0CBB
:1000C200BB13BB0CBB133B160D200F303A05BB0014
:0600D2003B160D200800A2
:0C00D800831221088A0020088200080022
:1000E4008028BF308312B8008D289330B8008D2843
:1000F400D330B8008D287F30B8008D283808023AF4
:10010400031973283808033A031977283808043A7E
:1001140003197A287D2839083807BA0040200800D6
:10012400831238088400000803199F2838088400C3
:0C0134000008BA005920B80A9228080000
:1001400083120313D8010830DC00500DD80D540879
:10015000D8020318AD28D8070310D00DDC0BA52852
:02016000080095
:100162008312B601033036020318BE28360835075B
:10017200840020308000B60AB32836083507840090
:100182008001B60336083507B7000A30D4003408B8
:10019200D000A0205808D0003030D00737088400A3
:1001A200500880000A30D4003408D000A020500843
:1001B200B4005008003A031DDF28E128B603C32823
:0201C200080033
:1001C4006C208A110A128000840AA00A0319A10A69
:0801D400D003031DE22808001E
:1001DC0083160511851005124130DC00EE30DD0070
:1001EC00DD0BF628DC0BF62800000330BB000D20DD
:1001FC000630DC00D730DD00DD0B0229DC0B0229D8
:10020C000330BB000D200630DC00D730DD00DD0BE9
:10021C000D29DC0B0D290330BB000D203130DD0026
:10022C00DD0B1629000000000230BB000D20283029
:10023C00BA0040200C30BA0040200630BA004020F2
:02024C000800A8
:10024E0083123408B8003508B90072203608B80099
:04025E0092200800E2
:100262008312B3010730990083169F01EE200130FB
:10027200BA0040200130B4000330B5004C30A70072
:100282004330A8004430A9002030AA003730AB0028
:100292003430AC004830AD004330AE003530AF00F2
:1002A2003930B0003530B100B2012730B600272115
:1002B2003308B4002230B500B120B30A0230B400D2
:1002C2000730B5002230B60027210630DB0013309C
:1002D200DC00AD30DD00DD0B6C29DC0B6C29DB0BA7
:0A02E2006C2900000000592975295D
:02400E00D431AB
:00000001FF
