:02000000462890
:0E000600073083120313FD00FD0B07280800CE
:0400140000000800E0
:10001800803083120313A700A609270803192A288A
:1000280027082605F10071080130031D0030F00093
:10003800701820288610212886140A200A20061401
:0E004800032006100320A70CA71311280800A0
:0C00560083160313061183120615080020
:1000620083160313861486100610831286108610D8
:04007200061008006C
:100076008312031306112408A6000C202508A600E7
:060086000C200615080025
:10008C0083120313A201A30131202B202208A40008
:10009C002308A5003B20A30A8230FC00DD30FD00C4
:1000AC00FD0B5628FC0B5628000000004C285D2840
:02400E004A2F37
:00000001FF
