:02000000832D4E
:100006007B15FB1F0D280130F300F201F101F00111
:08001600FA0DF20CFF300800A6
:10001E00103083120313FD00FD0B1328000008009F
:10002E00083083120313FC002330FD00FD0B1D2846
:06003E00FC0B1D28080068
:0E004400F201F101F001F801F30100300800B3
:0400520000000800A2
:08005600FA1FF213003008004C
:10005E0083120313CC1B35288712362887164C1BA8
:10006E003A2807123B280716CC1A3F28871140283A
:10007E0087154C1A44280711452807152D184928AD
:10008E0007144A280710871429208710CC195128E5
:10009E008712522887164C1956280712572807160A
:1000AE00CC185B2887115C2887154C18602807111F
:1000BE00612807152D186528071466280710871460
:1000CE00292087102D1C6D2817206E280F20080060
:1000DE00A0017208031D84287108F2007008F10057
:1000EE00F001A0157208031D84287108F200F101B9
:1000FE00A01120167208031992282008F302031D7E
:10010E00031C96280310F21B9A28F00DF10DF20D28
:10011E00F30B8A2896280130FC0022209D280230FD
:0E012E00FC0003209D280430FC002B2008005C
:06013C00FB15FF30080076
:10014200FB14FB1FAB28FF30F300F200F100F000BC
:08015200FA0DF20CFF30080069
:10015A00831203137408003A031DC8287508003A6D
:10016A00031DC8287608003A031DC8287708003AF4
:10017A00031DC828FF30F000FF30F1007F30F20085
:10018A00FF30F300632983120313770803195729F1
:10019A00730803195A29720876068039FA00F21789
:1001AA00F617A0017208F8007108FC007008FD003B
:1001BA007408FD027508031C750FFC027608031CFF
:1001CA00760FF802F801FC01FD01031CF328031065
:1001DA00F20CF10CF00CF80C0130A0007708F302D5
:1001EA00031CFD287E302007F30703185D29022926
:1001FA007E302007F307031C60291830FA07FD0D2B
:10020A00FC0DF80DF00DF10DF20DA00D7408F002C1
:10021A007508031C750FF1027608031C760FF202AB
:10022A00760DA004201C1B297D1426297408F007CA
:10023A0075080318750FF10776080318760AF2078E
:10024A007D10FA031F307A05031D04297B1B7D1CD0
:10025A004D290310F00DF10DF20DA00D7408F002F6
:10026A007508031C750FF1027608031C760FF2025B
:10027A00760D20040139FD070318FC0A0319F80A50
:10028A00031D4D29F80CFC0CFD0CF30A03195D291A
:10029A00FA1FF8137808F2007C08F1007D08F000D4
:1002AA000030622901309E20622902302220622910
:0E02BA000430A1206229083003200000080053
:1002C80083120313FB017308031D77080319BB2965
:1002D80072087606FA007708F3077E30031C78293F
:1002E800F3020318BE297B29F302031CC1297208F3
:1002F800F8007108FC007008FD00F817F6170310E5
:10030800F201F101F0011830A0007D1C9529740854
:10031800F00775080318750FF10776080318760FAC
:10032800F207F20CF10CF00CF80CFC0CFD0C0310AD
:10033800A00B8929F21BA529F80DF00DF10DF20D7E
:10034800F3037B1B701CB729F81FB729F00A0319A0
:10035800F10A0319F20A031DB729F20CF10CF00C8B
:10036800F30A0319BE29FA1FF2130030C32901301A
:100378002220C3290230A120C32904300320000011
:0203880008006B
:10038A00831203137008F8007108F000F101F201FA
:10039A00F301FB01FC019630F300FA017008F10049
:0C03AA007808F000F801F2016F20080054
:0E03B600831203132C088A002B088200080013
:1003C400831203132D104A08CC002F202D1408008B
:1003D400831203134A08F2007208F100F20A4B0870
:1003E400F000CB0A700884000008F0007108840053
:1003F400700880007108840000080319022AEE299D
:060404004A08F0000800A8
:10040A0083120313FD01F8017008031900347406FE
:10041A00FA00FA1BFD09FB01F41F152AF409F40A74
:10042A00F01F192AF009F00A70087404FA00FA1B7E
:10043A003D2A7408F802F00D700DF80D7408F807DB
:10044A00F00D0630FC00700DF80D74087018F802F3
:10045A00701CF807F00DFC0B282A701CF8077B1893
:10046A004B2AFD1F0034F009F00AF809F80A003493
:10047A00F41F482AF01B452A7008F800F001362AB2
:10048A00F001F00A0034F009FB0A1E2AF80A74087F
:10049A007802031D362AF801F00AF01F362AFF34C3
:0204AA00080048
:1004AC0083120313FA017308031D7A147708031DD2
:1004BC00FA147A080319A22A033A03196D2A7A1836
:1004CC006A2AF61FA02A9E2AF21F9E2AA02A7208C8
:1004DC008039FA00F21376088039F6137A0603197C
:1004EC007B2A7A0803199E2AA02A7708730203191B
:1004FC00822A031C962A9A2A760872020319892AE0
:10050C00031C962A9A2A750871020319902A031C57
:10051C00962A9A2A740870020319A22A03189A2A96
:10052C00FA080319A02A9E2AFA0803199E2AA02A5F
:10053C000314080003100800031403150800080036
:10054C0083120313C801C9013D08C4003E08C5004D
:10055C003F08C6004008C7004708FF3A031DC02AE1
:10056C004608FF3A031DC02A4508FF3A031DC02A5E
:10057C004408FF3A031DCA2A4108CA002730CB00A1
:10058C00EA210330F000A32C0130C200C61FD92A87
:10059C0080304606F0007008C600C20A410884008C
:1005AC002D308000C10A0030F0004706031DE82AF8
:1005BC0070084606031DE82A70084506031DE82A44
:1005CC004408003A031DF12A4108CA002130CB002F
:1005DC00EA21F001A32C4708FF3A031DFF2A460825
:1005EC00003A031DFF2A4508003A031DFF2A440860
:1005FC00003A031D092B4108CA002330CB00EA2125
:10060C004208F000A32C0030F4000030F50000305C
:10061C00F6007F30F7004408F0004508F10046086A
:10062C00F2004708F3005622013003180030F000A6
:10063C00700803193C2B4408F0004508F1004608EB
:10064C00F2004708F3000030F4000030F5002030D1
:10065C00F6008230F70064217008C4007108C500F0
:10066C007208C6007308C700C903092B0030F400D8
:10067C000030F5002030F6008230F7004408F0001E
:10068C004508F1004608F2004708F30056220130F5
:10069C00031C0030F000700803196F2B4408F000A5
:1006AC004508F1004608F2004708F300CD30F4008D
:1006BC00CC30F5004C30F6007B30F700642170082C
:1006CC00C4007108C5007208C6007308C700C90AC7
:1006DC003C2BFF304405F800FF304505F9007F3016
:1006EC004605FA0000304705FB007808F40079084D
:1006FC00F5007A08F6007B08F700F40DF50DF60D01
:10070C00F70D741000304405F00000304505F10081
:10071C0000304605F200FF304705F3007008C400B6
:10072C007108C5007208C6007308C7007408440439
:10073C00F00075084504F10076084604F2007708CD
:10074C004704F3007008C4007108C5007208C600A5
:10075C007308C7007F304702F0007008C3000130F7
:10076C00C7007008F4004408F0004508F100460882
:10077C00F2004708F30074080319CB2BF00DF10DB0
:10078C00F20DF30D7010FF3EC22B7008C4007108FF
:10079C00C5007208C6007308C7004708303EF00059
:1007AC004108840070088000C10A80304906F000BE
:1007BC008030013A7002031CEC2B8030063AF000BA
:1007CC00803049067002031CEC2BF32B410884008B
:1007DC002E308000C10A0130C8000630C300430827
:1007EC00003A0319512CC7014408F0004508F100E8
:1007FC004608F2004708F300F00DF10DF20DF30D71
:10080C007010F00DF10DF20DF30D70104408F0079F
:10081C0045080318450FF10746080318460FF20761
:10082C0047080318470FF3077008C4007108C50088
:10083C007208C6007308C7004408F0004508F100B0
:10084C004608F2004708F300F00DF10DF20DF30D20
:10085C0070107008C4007108C5007208C6007308D7
:10086C00C7004708303EF000410884007008800043
:10087C00C10A4808003A031D4F2CC9034908003A25
:10088C00031D4F2C410884002E308000C10A01301A
:10089C00C800C303F52BFF30410784000008303A31
:1008AC00031D5A2CC103512CFF3041078400000852
:1008BC002E3A031D622CC1034908003A03199F2CE0
:1008CC004108840065308000C10A80304906F00080
:1008DC008030003A700203187B2C410884002D30C4
:1008EC008000C10A4908003CC9004908C300803097
:1008FC00093AF0008030490670020318912C0A3036
:10090C00F4004308F00005223030F0074108840061
:10091C0070088000C10A0A30F4004308F000052278
:10092C007808F0003030F00741088400700880002F
:0C093C00C10A410884008001F00108009D
:10094800B62C803083120313BD00C92CC030BD0003
:10095800C92C9430BD00C92CD430BD00C92C8030BE
:10096800BD00C92C831203133D08013A0319A52CB5
:100978003D08023A0319AA2C3D08033A0319AD2C85
:100988003D08043A0319B02CB32C3E03F0003D088F
:10099800F0077008BD007008CC002F202D10C00192
:1009A80040083F07840000080319E22C40083F076D
:1009B80084000008CA00E221C00AD42C2D140800C3
:1009C800DB218A110A128000840AAB0A0319AC0AD7
:0809D800F003031DE42C0800EC
:1009E000831203133D08F0003E08F100C5213F08C3
:1009F000F4004008F5004108F6004208F7006421C1
:100A00000030F4000030F5000030F6008B30F700C5
:040A1000AD2008000D
:100A14008312031306140611F2010F307202031835
:100A2400232DF30DF40D73100614000006100000BE
:100A3400F0018618F00A7008F3040030F404F20A96
:100A44000F2D06100615FF307305F00074080F39DA
:040A5400F1000800A5
:100A58008316031306110610861483120615061052
:020A6800080084
:100A6A0083160313871007100711871107128712BD
:100A7A008312871007108712071287110711172090
:100A8A001720172087150715871429208710172084
:100A9A0087142920871017208714292087101720E8
:100AAA0007118714292087101720871429208710F7
:100ABA008711871687142920871017208712071590
:100ACA0087142920871007118714292087101720D7
:100ADA0087142920871007158714292087101720C3
:100AEA0007118714292087108716071687150715F7
:0C0AFA0087142920871017202D140800F5
:100B0600CE252C2535250130CC002F200C30CC00ED
:100B16002F200A257008BD007108BE000030BF00F6
:100B26000030C0002030C1008130C200F0247008BF
:100B3600BD007108BE007208BF007308C0002E30E9
:100B4600C100A6220230BD000130BE002E30BF001B
:100B5600A4245630CA00E2210630FB001330FC0004
:100B6600AD30FD00FD0BB52DFC0BB52DFB0BB52DEA
:080B7600000000008C2DBE2DD3
:100B9C00213084000A3083120313F000C430AB0000
:080BAC000530AC00E424080050
:040B880030340034D1
:080B8C0049344E3446340034B4
:080B94004E3461344E3400348C
:02400E004A2F37
:00000001FF
